{
  "address": "0x3521eF8AaB0323004A6dD8b03CE890F4Ea3A13f5",
  "abi": [
    {
      "inputs": [
        {
          "internalType": "address",
          "name": "incentivesControllerAddress",
          "type": "address"
        },
        {
          "internalType": "address[6]",
          "name": "aTokenImplementations",
          "type": "address[6]"
        },
        {
          "internalType": "address[6]",
          "name": "variableDebtImplementation",
          "type": "address[6]"
        }
      ],
      "name": "execute",
      "outputs": [],
      "stateMutability": "nonpayable",
      "type": "function"
    }
  ],
  "transactionHash": "0x12a31ffc011fbd2b7cd8618f9eb4586b9c16e4f2bb632ce8de9e48c50e41638c",
  "args": [],
  "solcInputHash": "0eb9fb9594bb179fb9fcf8f1bfa738a0",
  "bytecode": "0x608060405234801561001057600080fd5b5061101d806100206000396000f3fe608060405234801561001057600080fd5b506004361061002b5760003560e01c806307f489d414610030575b600080fd5b61004a60048036038101906100459190610b6a565b61004c565b005b60006100566107ca565b6040518060c0016040528073dac17f958d2ee523a2206206994597c13d831ec773ffffffffffffffffffffffffffffffffffffffff1673ffffffffffffffffffffffffffffffffffffffff16815260200173a0b86991c6218b36c1d19d4a2e9eb0ce3606eb4873ffffffffffffffffffffffffffffffffffffffff1673ffffffffffffffffffffffffffffffffffffffff168152602001736b175474e89094c44da98b954eedeac495271d0f73ffffffffffffffffffffffffffffffffffffffff1673ffffffffffffffffffffffffffffffffffffffff16815260200173c02aaa39b223fe8d0a0e5c4f27ead9083c756cc273ffffffffffffffffffffffffffffffffffffffff1673ffffffffffffffffffffffffffffffffffffffff168152602001732260fac5e5542a773aa44fbcfedf7c193bc2c59973ffffffffffffffffffffffffffffffffffffffff1673ffffffffffffffffffffffffffffffffffffffff16815260200173056fd409e1d7a124bd7017459dfea2f387b6d5cd73ffffffffffffffffffffffffffffffffffffffff1673ffffffffffffffffffffffffffffffffffffffff1681525090506060600073311bb771e4f8952e6da169b425e7e92d6ac457569050600087905060007325f2226b597e8f9514b3f68f00f494cf4f286491905060068014801561024e5750600680145b61028d576040517f08c379a000000000000000000000000000000000000000000000000000000000815260040161028490610dfc565b60405180910390fd5b60005b6006811015610657576102a16107ec565b737d2768de32b0b80b7a3454c06bdac94a69ddc7a973ffffffffffffffffffffffffffffffffffffffff166335ea6a758884600681106102dd57fe5b60200201516040518263ffffffff1660e01b81526004016102fe9190610d5f565b6101806040518083038186803b15801561031757600080fd5b505afa15801561032b573d6000803e3d6000fd5b505050506040513d601f19601f8201168201806040525081019061034f9190610bba565b90508473ffffffffffffffffffffffffffffffffffffffff166345fe794688846006811061037957fe5b60200201518c856006811061038a57fe5b60200201516040518363ffffffff1660e01b81526004016103ac929190610d7a565b600060405180830381600087803b1580156103c657600080fd5b505af11580156103da573d6000803e3d6000fd5b505050508473ffffffffffffffffffffffffffffffffffffffff16634d97825888846006811061040657fe5b60200201518b856006811061041757fe5b60200201516040518363ffffffff1660e01b8152600401610439929190610d7a565b600060405180830381600087803b15801561045357600080fd5b505af1158015610467573d6000803e3d6000fd5b505050506040518060600160405280660ad0a11358b8006fffffffffffffffffffffffffffffffff1681526020018260e0015173ffffffffffffffffffffffffffffffffffffffff166318160ddd6040518163ffffffff1660e01b815260040160206040518083038186803b1580156104df57600080fd5b505afa1580156104f3573d6000803e3d6000fd5b505050506040513d601f19601f820116820180604052508101906105179190610be4565b81526020018260e0015173ffffffffffffffffffffffffffffffffffffffff1681525086898151811061054657fe5b602002602001018190525087806001019850506040518060600160405280660ad0a11358b8006fffffffffffffffffffffffffffffffff16815260200182610120015173ffffffffffffffffffffffffffffffffffffffff166318160ddd6040518163ffffffff1660e01b815260040160206040518083038186803b1580156105ce57600080fd5b505afa1580156105e2573d6000803e3d6000fd5b505050506040513d601f19601f820116820180604052508101906106069190610be4565b815260200182610120015173ffffffffffffffffffffffffffffffffffffffff1681525086898151811061063657fe5b60200260200101819052508780600101985050508080600101915050610290565b508073ffffffffffffffffffffffffffffffffffffffff1663beabacc8737fc66500c84a76ad7e9c93437bfc5ac33e2ddae98b69151753aa68956a4000006040518463ffffffff1660e01b81526004016106b393929190610dc5565b600060405180830381600087803b1580156106cd57600080fd5b505af11580156106e1573d6000803e3d6000fd5b505050508173ffffffffffffffffffffffffffffffffffffffff1663b2a5dbfa856040518263ffffffff1660e01b815260040161071e9190610da3565b600060405180830381600087803b15801561073857600080fd5b505af115801561074c573d6000803e3d6000fd5b505050508173ffffffffffffffffffffffffffffffffffffffff1663e7703a4a6301e133806040518263ffffffff1660e01b815260040161078d9190610e1c565b600060405180830381600087803b1580156107a757600080fd5b505af11580156107bb573d6000803e3d6000fd5b50505050505050505050505050565b6040518060c00160405280600690602082028036833780820191505090505090565b60405180610180016040528061080061090f565b815260200160006fffffffffffffffffffffffffffffffff16815260200160006fffffffffffffffffffffffffffffffff16815260200160006fffffffffffffffffffffffffffffffff16815260200160006fffffffffffffffffffffffffffffffff16815260200160006fffffffffffffffffffffffffffffffff168152602001600064ffffffffff168152602001600073ffffffffffffffffffffffffffffffffffffffff168152602001600073ffffffffffffffffffffffffffffffffffffffff168152602001600073ffffffffffffffffffffffffffffffffffffffff168152602001600073ffffffffffffffffffffffffffffffffffffffff168152602001600060ff1681525090565b6040518060200160405280600081525090565b60008135905061093181610f74565b92915050565b60008151905061094681610f74565b92915050565b600082601f83011261095d57600080fd5b600661097061096b82610e68565b610e37565b9150818385602084028201111561098657600080fd5b60005b838110156109b6578161099c8882610922565b845260208401935060208301925050600181019050610989565b5050505092915050565b6000602082840312156109d257600080fd5b6109dc6020610e37565b905060006109ec84828501610b2b565b60008301525092915050565b60006101808284031215610a0b57600080fd5b610a16610180610e37565b90506000610a26848285016109c0565b6000830152506020610a3a84828501610b16565b6020830152506040610a4e84828501610b16565b6040830152506060610a6284828501610b16565b6060830152506080610a7684828501610b16565b60808301525060a0610a8a84828501610b16565b60a08301525060c0610a9e84828501610b40565b60c08301525060e0610ab284828501610937565b60e083015250610100610ac784828501610937565b61010083015250610120610add84828501610937565b61012083015250610140610af384828501610937565b61014083015250610160610b0984828501610b55565b6101608301525092915050565b600081519050610b2581610f8b565b92915050565b600081519050610b3a81610fa2565b92915050565b600081519050610b4f81610fb9565b92915050565b600081519050610b6481610fd0565b92915050565b60008060006101a08486031215610b8057600080fd5b6000610b8e86828701610922565b9350506020610b9f8682870161094c565b92505060e0610bb08682870161094c565b9150509250925092565b60006101808284031215610bcd57600080fd5b6000610bdb848285016109f8565b91505092915050565b600060208284031215610bf657600080fd5b6000610c0484828501610b2b565b91505092915050565b6000610c198383610cf0565b60608301905092915050565b610c2e81610ed8565b82525050565b610c3d81610ed8565b82525050565b6000610c4e82610e9e565b610c588185610eb6565b9350610c6383610e8e565b8060005b83811015610c94578151610c7b8882610c0d565b9750610c8683610ea9565b925050600181019050610c67565b5085935050505092915050565b610caa81610f4e565b82525050565b6000610cbd601683610ec7565b91507f4172726179206c656e677468206d6973736d61746368000000000000000000006000830152602082019050919050565b606082016000820151610d066000850182610d32565b506020820151610d196020850182610d41565b506040820151610d2c6040850182610c25565b50505050565b610d3b81610eea565b82525050565b610d4a81610f26565b82525050565b610d5981610f26565b82525050565b6000602082019050610d746000830184610c34565b92915050565b6000604082019050610d8f6000830185610c34565b610d9c6020830184610c34565b9392505050565b60006020820190508181036000830152610dbd8184610c43565b905092915050565b6000606082019050610dda6000830186610ca1565b610de76020830185610c34565b610df46040830184610d50565b949350505050565b60006020820190508181036000830152610e1581610cb0565b9050919050565b6000602082019050610e316000830184610d50565b92915050565b6000604051905081810181811067ffffffffffffffff82111715610e5e57610e5d610f72565b5b8060405250919050565b600067ffffffffffffffff821115610e8357610e82610f72565b5b602082029050919050565b6000819050602082019050919050565b600081519050919050565b6000602082019050919050565b600082825260208201905092915050565b600082825260208201905092915050565b6000610ee382610f06565b9050919050565b60006fffffffffffffffffffffffffffffffff82169050919050565b600073ffffffffffffffffffffffffffffffffffffffff82169050919050565b6000819050919050565b600064ffffffffff82169050919050565b600060ff82169050919050565b6000610f5982610f60565b9050919050565b6000610f6b82610f06565b9050919050565bfe5b610f7d81610ed8565b8114610f8857600080fd5b50565b610f9481610eea565b8114610f9f57600080fd5b50565b610fab81610f26565b8114610fb657600080fd5b50565b610fc281610f30565b8114610fcd57600080fd5b50565b610fd981610f41565b8114610fe457600080fd5b5056fea2646970667358221220eb60693adc6cbac929003eac1eec1678bedbb45c84afadcc77f746edcefe24e264736f6c63430007050033",
  "devdoc": {
    "kind": "dev",
    "methods": {},
    "version": 1
  },
  "userdoc": {
    "kind": "user",
    "methods": {},
    "version": 1
  },
  "storageLayout": {
    "storage": [],
    "types": null
  }
}