{
  "address": "0x3521eF8AaB0323004A6dD8b03CE890F4Ea3A13f5",
  "abi": [
    {
      "inputs": [
        {
          "internalType": "address",
          "name": "incentivesControllerAddress",
          "type": "address"
        },
        {
          "internalType": "address[6]",
          "name": "aTokenImplementations",
          "type": "address[6]"
        },
        {
          "internalType": "address[6]",
          "name": "variableDebtImplementation",
          "type": "address[6]"
        }
      ],
      "name": "execute",
      "outputs": [],
      "stateMutability": "nonpayable",
      "type": "function"
    }
  ],
  "transactionHash": "0x1ea265ec8a223735e905d75e830dee34183dc30778f09d0e54ceeb72fd567bec",
  "args": [],
  "solcInputHash": "4ca07d48a7eec5e2d44b13505f108c25",
  "bytecode": "0x608060405234801561001057600080fd5b50611088806100206000396000f3fe608060405234801561001057600080fd5b506004361061002b5760003560e01c806307f489d414610030575b600080fd5b61004a60048036038101906100459190610c08565b61004c565b005b600061005661081f565b6040518060c0016040528073dac17f958d2ee523a2206206994597c13d831ec773ffffffffffffffffffffffffffffffffffffffff1673ffffffffffffffffffffffffffffffffffffffff16815260200173a0b86991c6218b36c1d19d4a2e9eb0ce3606eb4873ffffffffffffffffffffffffffffffffffffffff1673ffffffffffffffffffffffffffffffffffffffff168152602001736b175474e89094c44da98b954eedeac495271d0f73ffffffffffffffffffffffffffffffffffffffff1673ffffffffffffffffffffffffffffffffffffffff16815260200173c02aaa39b223fe8d0a0e5c4f27ead9083c756cc273ffffffffffffffffffffffffffffffffffffffff1673ffffffffffffffffffffffffffffffffffffffff168152602001732260fac5e5542a773aa44fbcfedf7c193bc2c59973ffffffffffffffffffffffffffffffffffffffff1673ffffffffffffffffffffffffffffffffffffffff16815260200173056fd409e1d7a124bd7017459dfea2f387b6d5cd73ffffffffffffffffffffffffffffffffffffffff1673ffffffffffffffffffffffffffffffffffffffff1681525090506060600c67ffffffffffffffff8111801561021f57600080fd5b5060405190808252806020026020018201604052801561025957816020015b610246610841565b81526020019060019003908161023e5790505b509050600073311bb771e4f8952e6da169b425e7e92d6ac45756905060008790506000731e506cbb6721b83b1549fa1558332381ffa61a9390506006801480156102a35750600680145b6102e2576040517f08c379a00000000000000000000000000000000000000000000000000000000081526004016102d990610e8b565b60405180910390fd5b60005b60068110156106ac576102f661088a565b737d2768de32b0b80b7a3454c06bdac94a69ddc7a973ffffffffffffffffffffffffffffffffffffffff166335ea6a7588846006811061033257fe5b60200201516040518263ffffffff1660e01b81526004016103539190610dee565b6101806040518083038186803b15801561036c57600080fd5b505afa158015610380573d6000803e3d6000fd5b505050506040513d601f19601f820116820180604052508101906103a49190610c58565b90508473ffffffffffffffffffffffffffffffffffffffff166345fe79468884600681106103ce57fe5b60200201518c85600681106103df57fe5b60200201516040518363ffffffff1660e01b8152600401610401929190610e09565b600060405180830381600087803b15801561041b57600080fd5b505af115801561042f573d6000803e3d6000fd5b505050508473ffffffffffffffffffffffffffffffffffffffff16634d97825888846006811061045b57fe5b60200201518b856006811061046c57fe5b60200201516040518363ffffffff1660e01b815260040161048e929190610e09565b600060405180830381600087803b1580156104a857600080fd5b505af11580156104bc573d6000803e3d6000fd5b505050506040518060600160405280660ad0a11358b8006fffffffffffffffffffffffffffffffff1681526020018260e0015173ffffffffffffffffffffffffffffffffffffffff166318160ddd6040518163ffffffff1660e01b815260040160206040518083038186803b15801561053457600080fd5b505afa158015610548573d6000803e3d6000fd5b505050506040513d601f19601f8201168201806040525081019061056c9190610c82565b81526020018260e0015173ffffffffffffffffffffffffffffffffffffffff1681525086898151811061059b57fe5b602002602001018190525087806001019850506040518060600160405280660ad0a11358b8006fffffffffffffffffffffffffffffffff16815260200182610120015173ffffffffffffffffffffffffffffffffffffffff166318160ddd6040518163ffffffff1660e01b815260040160206040518083038186803b15801561062357600080fd5b505afa158015610637573d6000803e3d6000fd5b505050506040513d601f19601f8201168201806040525081019061065b9190610c82565b815260200182610120015173ffffffffffffffffffffffffffffffffffffffff1681525086898151811061068b57fe5b602002602001018190525087806001019850505080806001019150506102e5565b508073ffffffffffffffffffffffffffffffffffffffff1663beabacc8737fc66500c84a76ad7e9c93437bfc5ac33e2ddae98b69021e19e0c9bab24000006040518463ffffffff1660e01b815260040161070893929190610e32565b600060405180830381600087803b15801561072257600080fd5b505af1158015610736573d6000803e3d6000fd5b505050508173ffffffffffffffffffffffffffffffffffffffff1663b2a5dbfa856040518263ffffffff1660e01b81526004016107739190610e69565b600060405180830381600087803b15801561078d57600080fd5b505af11580156107a1573d6000803e3d6000fd5b505050508173ffffffffffffffffffffffffffffffffffffffff1663e7703a4a6301e133806040518263ffffffff1660e01b81526004016107e29190610eab565b600060405180830381600087803b1580156107fc57600080fd5b505af1158015610810573d6000803e3d6000fd5b50505050505050505050505050565b6040518060c00160405280600690602082028036833780820191505090505090565b604051806060016040528060006fffffffffffffffffffffffffffffffff16815260200160008152602001600073ffffffffffffffffffffffffffffffffffffffff1681525090565b60405180610180016040528061089e6109ad565b815260200160006fffffffffffffffffffffffffffffffff16815260200160006fffffffffffffffffffffffffffffffff16815260200160006fffffffffffffffffffffffffffffffff16815260200160006fffffffffffffffffffffffffffffffff16815260200160006fffffffffffffffffffffffffffffffff168152602001600064ffffffffff168152602001600073ffffffffffffffffffffffffffffffffffffffff168152602001600073ffffffffffffffffffffffffffffffffffffffff168152602001600073ffffffffffffffffffffffffffffffffffffffff168152602001600073ffffffffffffffffffffffffffffffffffffffff168152602001600060ff1681525090565b6040518060200160405280600081525090565b6000813590506109cf81610fdf565b92915050565b6000815190506109e481610fdf565b92915050565b600082601f8301126109fb57600080fd5b6006610a0e610a0982610ef7565b610ec6565b91508183856020840282011115610a2457600080fd5b60005b83811015610a545781610a3a88826109c0565b845260208401935060208301925050600181019050610a27565b5050505092915050565b600060208284031215610a7057600080fd5b610a7a6020610ec6565b90506000610a8a84828501610bc9565b60008301525092915050565b60006101808284031215610aa957600080fd5b610ab4610180610ec6565b90506000610ac484828501610a5e565b6000830152506020610ad884828501610bb4565b6020830152506040610aec84828501610bb4565b6040830152506060610b0084828501610bb4565b6060830152506080610b1484828501610bb4565b60808301525060a0610b2884828501610bb4565b60a08301525060c0610b3c84828501610bde565b60c08301525060e0610b50848285016109d5565b60e083015250610100610b65848285016109d5565b61010083015250610120610b7b848285016109d5565b61012083015250610140610b91848285016109d5565b61014083015250610160610ba784828501610bf3565b6101608301525092915050565b600081519050610bc381610ff6565b92915050565b600081519050610bd88161100d565b92915050565b600081519050610bed81611024565b92915050565b600081519050610c028161103b565b92915050565b60008060006101a08486031215610c1e57600080fd5b6000610c2c868287016109c0565b9350506020610c3d868287016109ea565b92505060e0610c4e868287016109ea565b9150509250925092565b60006101808284031215610c6b57600080fd5b6000610c7984828501610a96565b91505092915050565b600060208284031215610c9457600080fd5b6000610ca284828501610bc9565b91505092915050565b6000610cb78383610d7f565b60608301905092915050565b610ccc81610f67565b82525050565b610cdb81610f67565b82525050565b6000610cec82610f2d565b610cf68185610f45565b9350610d0183610f1d565b8060005b83811015610d32578151610d198882610cab565b9750610d2483610f38565b925050600181019050610d05565b5085935050505092915050565b6000610d4c601683610f56565b91507f4172726179206c656e677468206d6973736d61746368000000000000000000006000830152602082019050919050565b606082016000820151610d956000850182610dc1565b506020820151610da86020850182610dd0565b506040820151610dbb6040850182610cc3565b50505050565b610dca81610f79565b82525050565b610dd981610fb5565b82525050565b610de881610fb5565b82525050565b6000602082019050610e036000830184610cd2565b92915050565b6000604082019050610e1e6000830185610cd2565b610e2b6020830184610cd2565b9392505050565b6000606082019050610e476000830186610cd2565b610e546020830185610cd2565b610e616040830184610ddf565b949350505050565b60006020820190508181036000830152610e838184610ce1565b905092915050565b60006020820190508181036000830152610ea481610d3f565b9050919050565b6000602082019050610ec06000830184610ddf565b92915050565b6000604051905081810181811067ffffffffffffffff82111715610eed57610eec610fdd565b5b8060405250919050565b600067ffffffffffffffff821115610f1257610f11610fdd565b5b602082029050919050565b6000819050602082019050919050565b600081519050919050565b6000602082019050919050565b600082825260208201905092915050565b600082825260208201905092915050565b6000610f7282610f95565b9050919050565b60006fffffffffffffffffffffffffffffffff82169050919050565b600073ffffffffffffffffffffffffffffffffffffffff82169050919050565b6000819050919050565b600064ffffffffff82169050919050565b600060ff82169050919050565bfe5b610fe881610f67565b8114610ff357600080fd5b50565b610fff81610f79565b811461100a57600080fd5b50565b61101681610fb5565b811461102157600080fd5b50565b61102d81610fbf565b811461103857600080fd5b50565b61104481610fd0565b811461104f57600080fd5b5056fea26469706673582212208d3883e9704e0a85fecfb3fa99d6b46e90b6ddad3cd63ebc05fd644997678d7c64736f6c63430007050033",
  "devdoc": {
    "kind": "dev",
    "methods": {},
    "version": 1
  },
  "userdoc": {
    "kind": "user",
    "methods": {},
    "version": 1
  },
  "storageLayout": {
    "storage": [],
    "types": null
  }
}