{
  "address": "0x53369fd4680FfE3DfF39Fc6DDa9CfbfD43daeA2E",
  "abi": [
    {
      "inputs": [
        {
          "internalType": "address payable",
          "name": "to",
          "type": "address"
        }
      ],
      "name": "destroyAndTransfer",
      "outputs": [],
      "stateMutability": "payable",
      "type": "function"
    }
  ],
  "transactionHash": "0x739839da815ec4c588f08971325d8edeb785ff39e2846011cd0754da7215d8dd",
  "args": [],
  "solcInputHash": "d9d25c99125a6b6af22008795bfd657a",
  "bytecode": "0x6080604052348015600f57600080fd5b5060b18061001e6000396000f3fe608060405260043610601c5760003560e01c8063785e07b3146021575b600080fd5b606060048036036020811015603557600080fd5b81019080803573ffffffffffffffffffffffffffffffffffffffff1690602001909291905050506062565b005b8073ffffffffffffffffffffffffffffffffffffffff16fffea2646970667358221220ba2024b81d454fecf469cc90a10eb7681cbbb203bab8c59e938339e38fe38dc464736f6c634300060c0033",
  "devdoc": {
    "kind": "dev",
    "methods": {},
    "version": 1
  },
  "userdoc": {
    "kind": "user",
    "methods": {},
    "version": 1
  },
  "storageLayout": {
    "storage": [],
    "types": null
  }
}